S00E0000636667315F6F75747372658F
S21401000000000000000000000000000000000000EA
S21401001000000000000000000000000000000000DA
S21401002000000000000000000000000000000000CA
S2140100300000000000000000000000001200341262
S2140100407856341200000000000000007856341282
S214010050080000000400000000000000000000008E
S2140100600100000000000000C400000000000000C5
S2140100700400000000000000020000000000000074
S2140100800100000000000000040000000000000065
S2140100900100000000000000040000000000000055
S2140100A00400000000000000240000000000000022
S2140100B00400000000000000300000000000000006
S2140100C01C0000000000000004000000000000000A
S2140100D00000000000000000080000000000000012
S2140100E00000000000000000010000000000000009
S2140100F000000000000000000000000000000000FA
S21401010000000000000000000F00000000000000DA
S21401011010000000000000000000000000000000C9
S21401012000000000000000000000000000000000C9
S21401013000000000000000000001000000000000B8
S21401014000040000000000000004000000000000A1
S2140101500004000000000000002000000000000075
S2140101600000000000000000020000000000000087
S2140101700200000000000000010000000000000076
S2140101800200000000000000000000000000000067
S2140101900000000000000000010000000000000058
S2140101A0FFFFFFFF0000000001000000000000004C
S2140101B00100000000000000000000000000000038
S2140101C00000000000000000010000000000000028
S2140101D00100000000000000020000000000000016
S2140101E00080000000000000160000000000000073
S2140101F000100000000000005345434E00000000C0
S2140102000D000000000000000000000000000000DB
S21401021000000000000000000000000000000000D8
S21401022010000000000000005E0100000000000059
S21401023008000000000000000C00000000000000A4
S214010240240000000000000028000000000000005C
S21401025014000000000000000C0000000000000078
S2140102600400000000000000000000000000000084
S2140102701000000000000000140000000000000054
S214010280A000000000000000CC00000000000000FC
S2140102900100000000000000C00000000000000097
S2140102A0C80000000000000004000000000000007C
S2140102B00000000000000000100000000000000028
S2140102C0D000000000000000D40000000000000084
S2140102D0D500000000000000D6000000000000006D
S2140102E0D800000000000000000000000000000030
S2140102F00100000000000000640000000000000093
S2140103006400000000000000C800000000000000BB
S214010310C800000000000000E80300000000000024
S214010320E8030000000000000100000000000000DB
S21401033001000000000000000F00000000000000A7
S21401034088130000000000000F00000000000000FD
S21401035088130000000000000E00000000000000EE
S2140103608813000000000000EE00FFFF0000000000
S2140103700200000000000000ED00FFFF000000008A
S2140103800200000000000000A500FFFF00000000C2
S2140103900400000000000000A600FFFF00000000AF
S2140103A004000000000000005400FFFF00000000F1
S20C0103B03A01FFFF0000000006
S2120103B87F00000000527F0000527F007F0091
S20C0103C8000000000000000027
S9030000FC
